:100000000C946A020C9487020C9487020C94870269
:100010000C9487020C9487020C9487020C9487023C
:100020000C9487020C9487020C9487020C9487022C
:100030000C9487020C9487020C9487020C9487021C
:100040000C9487020C9487020C9487020C9487020C
:100050000C9487020C9487020C9487020C948702FC
:100060000C9487020C9487020080C0E0E060E0E01E
:10007000C08000000000000070FFFF0100000000D1
:10008000FFFFFE0000000000000F1F3C3830383832
:100090001F0F0300000000000000000080E0E000EF
:1000A00000000000000000000000030303FFFF0049
:1000B000000000000000000000003838383F3F38E2
:1000C000383800000000000000C0C0E06060E0E0E0
:1000D000C0800000000000000001000080C0E0F9C6
:1000E0003F1F000000000000003C3E3F3F3B39380E
:1000F000383838000000000000C0E0E06060E0E058
:10010000C0C0000000000000000100003030387D59
:10011000EFCF000000000000001C38383030383CC1
:100120001F0F010000000000000000000080C0E080
:10013000E000000000000000E0F0F8DECFC7C1FFE3
:10014000FFC0C00000000000000000000000003FF1
:100150003F0000000000000000E0E0E0E0E0E0E040
:10016000E0E0E00000000000003F3F3F3838307022
:10017000F0E0000000000000001C38383030383C4F
:100180001F0F010000000000000080C0C0E06060A0
:10019000E0E0000000000000E0FEFF3739181838EA
:1001A000F0F0C00000000000000F1F1C3830303895
:1001B0001F0F07000000000000E0E0E0E0E0E0E0EA
:1001C000E0E0E000000000000000000080E0F87EB9
:1001D0001F070100000000000000383E1F0701005B
:1001E00000000000000000000080C0E0E06060E06F
:1001F000C0C000000000000000CFFF7F38307070EA
:10020000FFEFC70000000000030F1F3C38303038FC
:100210001F1F0F00000000000080C0E0E060E0E071
:10022000C0800000000000000C3F7FF1E0C0C0E192
:10023000FFFFFE0000000000000038303038381E9C
:100240000F07000000000000000000000000000098
:10025000000000000000000000000000000000009E
:1002600000000000000000003C3C3C0000000000DA
:10027000000000000000000000000000000000007E
:10028000000000000000000000004040404040FE30
:10029000FE40404040400000000000000000000F11
:1002A0000F0000000000000000000000000000003F
:1002B00000000000000000000040404040404000BE
:1002C000000000000000000000000000000000002E
:1002D000000000000000000000000000000000001E
:1002E000000000000000000000000000003C3C3C5A
:1002F000000000000000000000000000003C3C3C4A
:100300000000000000000000000000000000002FBE
:1003100000000007000700147F147F14242A7F2A9E
:1003200012C4C81026463649552250000503000065
:10033000001C2241000041221C0014083E08140841
:10034000083E080800005030001010101010006027
:1003500060000020100804023E5149453E00427FE3
:10036000400042615149462141454B311814127FEA
:100370001027454545393C4A494930017109050373
:100380003649494936064949291E003636000000DB
:1003900056360000081422410014141414140041AD
:1003A0002214080201510906324959513E7E1111A9
:1003B000117E7F494949363E414141227F414122D8
:1003C0001C7F494949417F090909013E4149497A50
:1003D0007F0808087F00417F41002040413F017FA6
:1003E000081422417F404040407F020C027F7F047E
:1003F00008107F3E4141413E7F090909063E4151B7
:10040000215E7F09192946464949493101017F0189
:10041000013F4040403F1F2040201F3F4038403FA9
:1004200063140814630708700807615149454300C5
:100430007F414100552A552A550041417F00040261
:100440000102044040404040000102040020545496
:1004500054787F484444383844444420384444481D
:100460007F3854545418087E0901020C5252523EEF
:100470007F0804047800447D40002040443D007F14
:100480001028440000417F40007C041804787C0858
:1004900004047838444444387C14141408081414B0
:1004A000187C7C080404084854545420043F4440F9
:1004B000203C4040207C1C2040201C3C4030403CE4
:1004C00044281028440C5050503C4464544C440080
:1004D0000609090611241FBECFEFD8E0DEBFCDBF4D
:1004E00011E0A0E0B1E0EEE1F7E102C005900D926D
:1004F000A639B107D9F724E0A6E9B1E001C01D9201
:10050000AC34B207E1F70E943B050C948D0B0C94C0
:100510000000229A76956795709389006093880011
:100520009695879590938B0080938A0083E28093C1
:10053000800085E18093810008959C01ADECBCECC6
:100540000E949D089695879596958795009749F006
:1005500020E516BC27BDA99AA99BFECF019700975D
:10056000C1F70895CF93DF9300D0CDB7DEB742E057
:1005700050E060E070E0CE0101960E94A00A8981FF
:10058000809345048A81809346040F900F90DF91F9
:10059000CF9108953898ECE7F0E080E48083808183
:1005A00080628083EAE7F0E0808187608083109238
:1005B0007B000895EAE7F0E0808180688083808195
:1005C00080648083808184FFFDCF90917900EAE789
:1005D000F0E0808184FFFDCF20917900EAE7F0E030
:1005E000808184FFFDCF30917900EAE7F0E08081DF
:1005F00084FFFDCF40917900EAE7F0E0808184FF3D
:10060000FDCF50917900EAE7F0E0808184FFFDCFD3
:10061000B0917900EAE7F0E0808184FFFDCFA091FE
:100620007900EAE7F0E0808184FFFDCF70917900E6
:10063000EAE7F0E0808184FFFDCF60917900EAE78E
:10064000F0E0808184FFFDCF80917900921335C066
:10065000931333C0941331C095132FC09B132DC037
:100660009A132BC0971329C0961327C0981325C03F
:100670002091790080917A0083E1289F90011124D4
:10068000A9014B5C584081E0433F514008F080E0B5
:10069000A9014F5B5A404D35514008F482E0A90151
:1006A0004D515C40473C510508F483E0255E3C40D9
:1006B000213C314040F484E0089580917A0020E0AC
:1006C00030E080E0F3CF0895CF93DF93CDB7DEB76E
:1006D000EC970FB6F894DEBF0FBECDBF0E943A086C
:1006E000209338043093390440933A0450933B04E8
:1006F00060933C0470933D0480933E0490913D04CC
:1007000080913C041F929F931F928F9386E591E006
:100710009F938F93CE0101969F938F930E94AC0875
:10072000809138049091390430913B0420913A042F
:100730009F938F931F923F931F922F938FE791E088
:100740009F938F93CE0140969F938F930E94AC0806
:1007500080913E041F928F938EE891E09F938F9338
:10076000CE014F969F938F930E94AC0880914704CF
:100770001F928F9389E891E09F938F93CE018E967D
:100780009F938F930E94AC080E94500660E080E027
:100790000E943E0680914804909149040FB6F89457
:1007A000DEBF0FBECDBF019729F480E691E00E9425
:1007B000630704C08AE691E00E94630761E08FE06E
:1007C0000E943E06CE0140960E946307CE0101962C
:1007D0000E944B0765E080E00E943E060E94DA021C
:1007E000805D0E94900665E08EE10E943E06CE018B
:1007F0004F960E946307EC960FB6F894DEBF0FBECB
:10080000CDBFDF91CF910895EF92FF920F931F9389
:10081000CF93DF9360EA72E083E490E00E94890264
:100820000E94640385E090E00E949D0201E712E0CF
:10083000C1E0D0E0E12CF12C0EC00E94640385E001
:1008400090E00E949D022196CA30D10521F40E94B9
:100850006403CE2DDF2D0E94DA02843029F001508E
:1008600011090115110549F760EA72E080E090E096
:100870000E948902DF91CF911F910F91FF90EF901D
:100880000895CF93DF93CDB7DEB7CE54D1090FB61D
:10089000F894DEBF0FBECDBF86E0E0E0F1E0DE0100
:1008A000119601900D928A95E1F786E0E7E0F1E07C
:1008B000DE01179601900D928A95E1F78CE0EEE04B
:1008C000F1E0DE011D9601900D928A95E1F78CE032
:1008D000EBE1F1E0DE01599601900D928A95E1F786
:1008E0008CE0E8E2F1E0DE01959601900D928A95A8
:1008F000E1F78CE0E5E3F1E0DE01D19601900D92A5
:100900008A95E1F789E0E2E4F1E0DE01DD9601900D
:100910000D928A95E1F789E0ECE4F1E0DE01AA5B53
:10092000BF4F01900D928A95E1F70E945006809189
:100930004A04813001F561E080E00E943E06CE016C
:1009400007960E94630762E080E00E943E06CE01A7
:100950000D960E94630763E080E00E943E06CE0190
:1009600085960E94630764E080E00E943E06CE0107
:10097000CD960E94630780914A04823001F561E0C0
:1009800080E00E943E06CE0101960E94630762E06D
:1009900080E00E943E06CE0149960E94630763E014
:1009A00080E00E943E06CE0185960E94630764E0C7
:1009B00080E00E943E06CE01CD960E9463078091A2
:1009C0004A04833001F561E080E00E943E06CE01DA
:1009D00001960E94630762E080E00E943E06CE011D
:1009E0000D960E94630763E080E00E943E06CE0100
:1009F000C1960E94630764E080E00E943E06CE013B
:100A0000CD960E94630780914A04843009F561E025
:100A100080E00E943E06CE0101960E94630762E0DC
:100A200080E00E943E06CE010D960E94630763E0BF
:100A300080E00E943E06CE0185960E94630764E036
:100A400080E00E943E06CE018A5B9F4F0E946307B2
:100A500065E080E00E943E060E94DA02805D0E940E
:100A60009006C25BDF4F0FB6F894DEBF0FBECDBF5E
:100A7000DF91CF9108951092400481E080934A0461
:100A800085E085BD0E94B6070E9498080E942B064B
:100A90000E94950784E690E00E947D070E94500620
:100AA0000E94CA0281E090E0909349048093480438
:100AB000529853988BB18C608BB90E94B202C0E0FF
:100AC000D0E000E010E00F2EFCE3CF2EF4E0DF2EAC
:100AD000F02D0F2EF5E4EF2EF4E0FF2EF02D222462
:100AE0002394312C0F2EFDE3AF2EF4E0BF2EF02D1A
:100AF0000F2EF6E48F2EF4E09F2EF02D0F2EFEE346
:100B00006F2EF4E07F2EF02D412C512C0115110594
:100B100029F00130110509F440C0F8CF2196CA3000
:100B2000D10521F40E946403C42DD52D0E94B20288
:100B3000F6019081F7018081981315C0F50190812D
:100B4000F401808198130FC0F3019081E7E4F4E091
:100B50008081981308C080914804909149040197BE
:100B600011F40E9404040E94DA02809340048FE092
:100B700090E00E949D020E94DA02813039F686E9F7
:100B800090E00E949D020E94DA028111BFCFF1E045
:100B9000F0934A04022D132DB9CF2196CA30D10506
:100BA00009F041C00E9441048FE090E00E949D0244
:100BB0000E94DA028330A1F486E990E00E949D024F
:100BC0000E94DA0281110CC080914A04813019F42C
:100BD00080934A0405C080914A04815080934A045E
:100BE0000E94DA028430D1F486E990E00E949D02EE
:100BF0000E94DA02811115C080914A04843031F4D8
:100C0000E4E0E0934A04C42DD52D0DC080914A0440
:100C10008F5F80934A04C42DD52D05C0C42DD52DDA
:100C200002C0C42DD52D8FE090E00E949D020E944D
:100C3000DA02813009F06ACF86E990E00E949D02D5
:100C40000E94DA02222D932D811102C0242D952DB0
:100C5000022F192F5BCF81E58CBD08952998289824
:100C60008EBD0DB407FEFDCF299A08952998289AC4
:100C70008EBD0DB407FEFDCF299A0895CF93DF9363
:100C8000C82FD62F80680E942E068D2F80640E9468
:100C90002E06D0933704C0933604DF91CF91089588
:100CA000CF92DF92EF92FF920F931F93CF93DF9338
:100CB00060E080E00E943E060F2EF6E9EF2EF1E0A4
:100CC000FF2EF02D00E010E0C12CD12C19C080E0E7
:100CD0000E943606063011053CF4C435D10524F4D3
:100CE000F701EC0FFD1F10822196CA35D10579F767
:100CF0000F5F1F4F84E5E80EF11C0830110519F055
:100D0000CC2DDD2DE4CF60E080E00E943E06DF9137
:100D1000CF911F910F91FF90EF90DF90CF900895AA
:100D20001F93CF93DF93909137046091360470E066
:100D3000492F50E0DB0124E5929FA00DB11D112445
:100D4000AA56BE4F1C92282F30E020523109C9010B
:100D5000880F991F880F991F280F391F80E090E096
:100D6000285F3C4FF901E80FF91FE491FC91EF2B4C
:100D7000ED93019685309105A9F724E5249FC001E4
:100D8000259F900D11248A569E4FFC01E60FF71FF8
:100D9000168217E084E5849FE001859FD00D112421
:100DA0008091360491E0980F90933604FE01E80F8D
:100DB000F11DEA56FE4F80810E943606115081F7E0
:100DC000DF91CF911F910895AF92BF92CF92DF92A2
:100DD000EF92FF920F931F93CF93DF938E3241F0E8
:100DE0008B3241F08D3241F08A3341F08F7007C071
:100DF0008AE005C08BE003C08CE001C08DE090E389
:100E0000899F700111246894CC24C1F8A12CB12CC5
:100E10000F2EF4E5DF2EF02D6C2D80914B040E94F7
:100E20003E06CA2DDB2D870108591F4F409137041C
:100E300050E0809136049E01280F311DF801EC0F1F
:100E4000FD1FE491D49ED001D59EB00D1124A20FB8
:100E5000B31FAA56BE4F8C918E2B8C930E943606E0
:100E60002196C031D10511F7C39480E1E80EF11C41
:100E700095E0C912D1CF80914B04845F80934B04DD
:100E8000DF91CF911F910F91FF90EF90DF90CF9066
:100E9000BF90AF900895CF93DF93EC018CE08093E7
:100EA0004B048881882331F021960E94E4068991C1
:100EB0008111FBCF80914B0463E08A5F0E943E0664
:100EC000DF91CF9108950F931F93CF93DF93FC0190
:100ED0008081882369F0EF0121968F01035F1F4F06
:100EE0000E9490068991882319F0C017D107C1F795
:100EF000DF91CF911F910F91089518161906A4F450
:100F000040E050E074E660E00CC0000000002150BA
:100F1000310921153105C9F74F5F5F4F4817590750
:100F200019F0272F362FF1CF089584E690E00E9424
:100F30007D0729982C9884E690E00E947D072C9AE2
:100F4000299A81E20E942E0688EC0E942E0686E0F5
:100F50000E942E0683E10E942E0680E20E942E0649
:100F60008CE00E942E060E94500608951092B9004F
:100F700088E98093B800089584EA8093BC00ECEB84
:100F8000F0E080818823ECF79091B900987F81E0B0
:100F9000983109F080E008958093BB0084E8809345
:100FA000BC00ECEBF0E080818823ECF79091B90075
:100FB000987F81E0983109F080E008958093BB002C
:100FC00084E88093BC00ECEBF0E080818823ECF7B0
:100FD0009091B900987F81E0983209F480E00895FB
:100FE00084E88093BC00ECEBF0E080818823ECF790
:100FF0008091BB0008951F93CF93DF93C82FD62F06
:10100000142F211110C00E94BC078C2F0E94CC0706
:101010008D2F0E94DE07812F0E94DE0784E98093D6
:10102000BC0081E017C02130A1F40E94BC078C2FC6
:101030000E94CC078D2F0E94DE070E94BC078C2FD8
:1010400081600E94CC070E94F00794E99093BC0055
:1010500001C080E0DF91CF911F910895982F907784
:10106000969596959695292F220F220F920F8F70A5
:10107000890F0895DF92EF92FF920F931F93CF9302
:10108000DF93CDB7DEB727970FB6F894DEBF0FBE5C
:10109000CDBF21E040E062E080ED0E94FB078F734E
:1010A0000E942E08F82E21E040E061E080ED0E94D1
:1010B000FB070E942E08082F21E040E060E080ED51
:1010C0000E94FB070E942E08182F21E040E064E0F8
:1010D00080ED0E94FB070E942E08E82E21E040E0F0
:1010E00065E080ED0E94FB070E942E08D82E21E0CB
:1010F00040E066E080ED0E94FB070E942E08282F4A
:1011000030E03A8329833A814D2D5E2D6F2D702F6B
:10111000812F90E027960FB6F894DEBF0FBECDBFAB
:10112000DF91CF911F910F91FF90EF90DF90089585
:101130008FEF84B981E58CBD0895A29FB001B39F64
:10114000C001A39F700D811D1124911DB29F700DD0
:10115000811D1124911D0895AEE0B0E0E2EBF8E0AE
:101160000C94640B0D891E8986E08C831A83098395
:101170008FEF9FE79E838D83AE01475E5F4F6F8940
:10118000788DCE0101960E94CE08EF81F885E00FA0
:10119000F11F10822E96E4E00C94800BACE0B0E0DE
:1011A000E4EDF8E00C94560B7C016B018A01FC0124
:1011B00017821682838181FFBDC1CE0101964C0149
:1011C000F7019381F60193FD859193FF81916F0162
:1011D000882309F4ABC1853239F493FD859193FFDF
:1011E00081916F01853229F4B70190E00E94C60A0F
:1011F000E7CF512C312C20E02032A0F48B3269F063
:1012000030F4803259F0833269F420612CC08D3281
:1012100039F0803339F4216026C02260246023C075
:10122000286021C027FD27C030ED380F3A3078F410
:1012300026FF06C0FAE05F9E300D1124532E13C026
:101240008AE0389E300D1124332E20620CC08E327D
:1012500021F426FD6BC1206406C08C3611F4206891
:1012600002C0883641F4F60193FD859193FF819188
:101270006F018111C1CF982F9F7D9554933028F431
:101280000C5F1F4FFFE3F9830DC0833631F08337C6
:1012900071F0833509F05BC022C0F8018081898339
:1012A0000E5F1F4F44244394512C540115C0380144
:1012B000F2E06F0E711CF801A080B18026FF03C020
:1012C000652D70E002C06FEF7FEFC5012C870E9493
:1012D000BB0A2C0183012C852F77222E17C03801E1
:1012E000F2E06F0E711CF801A080B18026FF03C0F0
:1012F000652D70E002C06FEF7FEFC5012C870E9463
:10130000B00A2C012C852068222E830123FC1BC0EF
:10131000832D90E048165906B0F4B70180E290E0C2
:101320000E94C60A3A94F4CFF50127FC859127FE66
:1013300081915F01B70190E00E94C60A31103A9492
:10134000F1E04F1A51084114510471F7E5C0843699
:1013500011F0893639F5F80127FF07C060817181E6
:10136000828193810C5F1F4F08C060817181882743
:1013700077FD8095982F0E5F1F4F2F76B22E97FF27
:1013800009C090958095709561957F4F8F4F9F4FC5
:101390002068B22E2AE030E0A4010E94F80AA82EAC
:1013A000A81844C0853729F42F7EB22E2AE030E0F9
:1013B00025C0F22FF97FBF2E8F36C1F018F4883583
:1013C00079F0B4C0803719F0883721F0AFC02F2FE3
:1013D0002061B22EB4FE0DC08B2D8460B82E09C0E2
:1013E00024FF0AC09F2F9660B92E06C028E030E087
:1013F00005C020E130E002C020E132E0F801B7FE94
:1014000007C060817181828193810C5F1F4F06C08C
:101410006081718180E090E00E5F1F4FA4010E9407
:10142000F80AA82EA818FB2DFF77BF2EB6FE0BC01A
:101430002B2D2E7FA51450F4B4FE0AC0B2FC08C0B8
:101440002B2D2E7E05C07A2C2B2D03C07A2C01C0AB
:10145000752C24FF0DC0FE01EA0DF11D8081803343
:1014600011F4297E09C022FF06C07394739404C04E
:10147000822F867809F0739423FD13C020FF06C0E5
:101480005A2C731418F4530C5718732C731468F4F3
:10149000B70180E290E02C870E94C60A73942C85E5
:1014A000F5CF731410F4371801C0312C24FF12C08B
:1014B000B70180E390E02C870E94C60A2C8522FFAA
:1014C00017C021FF03C088E590E002C088E790E0E4
:1014D000B7010CC0822F867859F021FD02C080E24E
:1014E00001C08BE227FD8DE2B70190E00E94C60AA1
:1014F000A51438F4B70180E390E00E94C60A5A941C
:10150000F7CFAA94F401EA0DF11D8081B70190E0B4
:101510000E94C60AA110F5CF332009F451CEB701BD
:1015200080E290E00E94C60A3A94F6CFF7018681E5
:10153000978102C08FEF9FEF2C96E2E10C94720B23
:10154000DC01CB01FC01F999FECF06C0F2BDE1BD83
:10155000F89A319600B40D9241505040B8F7089572
:10156000FC010590615070400110D8F7809590956E
:101570008E0F9F1F0895FC01615070400190011073
:10158000D8F7809590958E0F9F1F08950F931F9306
:10159000CF93DF93182F092FEB018B8181FD03C0BF
:1015A0008FEF9FEF20C082FF10C04E815F812C81A2
:1015B0003D81421753077CF4E881F9819F012F5F39
:1015C0003F4F39832883108306C0E885F985812F32
:1015D0000995892B29F72E813F812F5F3F4F3F834C
:1015E0002E83812F902FDF91CF911F910F9108951E
:1015F000FA01AA27283051F1203181F1E8946F9344
:101600006E7F6E5F7F4F8F4F9F4FAF4FB1E03ED0E9
:10161000B4E03CD0670F781F891F9A1FA11D680F87
:10162000791F8A1F911DA11D6A0F711D811D911DBA
:10163000A11D20D009F468943F912AE0269F11242F
:101640003019305D3193DEF6CF010895462F477093
:10165000405D4193B3E00FD0C9F7F6CF462F4F70EE
:10166000405D4A3318F0495D31FD4052419302D04C
:10167000A9F7EACFB4E0A6959795879577956795F2
:10168000BA95C9F700976105710508959B01AC01F2
:101690000A2E06945795479537952795BA95C9F719
:1016A000620F731F841F951FA01D08952F923F92F4
:1016B0004F925F926F927F928F929F92AF92BF9262
:1016C000CF92DF92EF92FF920F931F93CF93DF930E
:1016D000CDB7DEB7CA1BDB0B0FB6F894DEBF0FBE6B
:1016E000CDBF09942A88398848885F846E847D84B8
:1016F0008C849B84AA84B984C884DF80EE80FD80BA
:101700000C811B81AA81B981CE0FD11D0FB6F8942F
:0E171000DEBF0FBECDBFED010895F894FFCFF0
:10171E0020526164696F003E526164696F0020530C
:10172E00657420416C61726D2031003E53657420EA
:10173E00416C61726D2031002053657420416C61E3
:10174E00726D2032003E53657420416C61726D20C3
:10175E003200205365742054696D65003E536574E4
:10176E002054696D6500253032643A2530326400AC
:10177E00416C61726D3A204F4E00416C61726D3A50
:10178E00204F46460053657420416C61726D0025F2
:10179E003032642F253032642F25303264002825F4
:0617AE0030326429000046
:00000001FF
